{
  "_format": "hh-sol-artifact-1",
  "contractName": "KrtExchange",
  "sourceName": "contracts/KrtExchange.sol",
  "abi": [
    {
      "inputs": [
        {
          "internalType": "contract KrtToken",
          "name": "_krtToken",
          "type": "address"
        }
      ],
      "stateMutability": "nonpayable",
      "type": "constructor"
    },
    {
      "anonymous": false,
      "inputs": [
        {
          "indexed": false,
          "internalType": "address",
          "name": "account",
          "type": "address"
        },
        {
          "indexed": false,
          "internalType": "address",
          "name": "token",
          "type": "address"
        },
        {
          "indexed": false,
          "internalType": "uint256",
          "name": "amount",
          "type": "uint256"
        },
        {
          "indexed": false,
          "internalType": "uint256",
          "name": "rate",
          "type": "uint256"
        }
      ],
      "name": "KrtTokensPurchased",
      "type": "event"
    },
    {
      "anonymous": false,
      "inputs": [
        {
          "indexed": false,
          "internalType": "address",
          "name": "account",
          "type": "address"
        },
        {
          "indexed": false,
          "internalType": "address",
          "name": "token",
          "type": "address"
        },
        {
          "indexed": false,
          "internalType": "uint256",
          "name": "amount",
          "type": "uint256"
        },
        {
          "indexed": false,
          "internalType": "uint256",
          "name": "rate",
          "type": "uint256"
        }
      ],
      "name": "KrtTokensSold",
      "type": "event"
    },
    {
      "inputs": [],
      "name": "buyTokens",
      "outputs": [],
      "stateMutability": "payable",
      "type": "function"
    },
    {
      "inputs": [],
      "name": "getName",
      "outputs": [
        {
          "internalType": "string",
          "name": "",
          "type": "string"
        }
      ],
      "stateMutability": "view",
      "type": "function"
    },
    {
      "inputs": [],
      "name": "krtToken",
      "outputs": [
        {
          "internalType": "contract KrtToken",
          "name": "",
          "type": "address"
        }
      ],
      "stateMutability": "view",
      "type": "function"
    },
    {
      "inputs": [],
      "name": "name",
      "outputs": [
        {
          "internalType": "string",
          "name": "",
          "type": "string"
        }
      ],
      "stateMutability": "view",
      "type": "function"
    },
    {
      "inputs": [
        {
          "internalType": "uint256",
          "name": "_amount",
          "type": "uint256"
        }
      ],
      "name": "sellTokens",
      "outputs": [],
      "stateMutability": "payable",
      "type": "function"
    }
  ],
  "bytecode": "0x60806040526040518060400160405280601c81526020017f4b727445786368616e676520496e7374616e742045786368616e6765000000008152506000908051906020019062000051929190620000d2565b5060646001553480156200006457600080fd5b5060405162000fba38038062000fba83398181016040528101906200008a919062000199565b80600260006101000a81548173ffffffffffffffffffffffffffffffffffffffff021916908373ffffffffffffffffffffffffffffffffffffffff160217905550506200028c565b828054620000e0906200020d565b90600052602060002090601f01602090048101928262000104576000855562000150565b82601f106200011f57805160ff191683800117855562000150565b8280016001018555821562000150579182015b828111156200014f57825182559160200191906001019062000132565b5b5090506200015f919062000163565b5090565b5b808211156200017e57600081600090555060010162000164565b5090565b600081519050620001938162000272565b92915050565b600060208284031215620001ac57600080fd5b6000620001bc8482850162000182565b91505092915050565b6000620001d282620001ed565b9050919050565b6000620001e682620001c5565b9050919050565b600073ffffffffffffffffffffffffffffffffffffffff82169050919050565b600060028204905060018216806200022657607f821691505b602082108114156200023d576200023c62000243565b5b50919050565b7f4e487b7100000000000000000000000000000000000000000000000000000000600052602260045260246000fd5b6200027d81620001d9565b81146200028957600080fd5b50565b610d1e806200029c6000396000f3fe60806040526004361061004a5760003560e01c806306fdde031461004f57806317d7de7c1461007a5780636026c92f146100a55780636c11bcd3146100d0578063d0febe4c146100ec575b600080fd5b34801561005b57600080fd5b506100646100f6565b6040516100719190610a0b565b60405180910390f35b34801561008657600080fd5b5061008f610184565b60405161009c9190610a0b565b60405180910390f35b3480156100b157600080fd5b506100ba6102df565b6040516100c791906109f0565b60405180910390f35b6100ea60048036038101906100e591906107f8565b610305565b005b6100f46104b8565b005b6000805461010390610bea565b80601f016020809104026020016040519081016040528092919081815260200182805461012f90610bea565b801561017c5780601f106101515761010080835404028352916020019161017c565b820191906000526020600020905b81548152906001019060200180831161015f57829003601f168201915b505050505081565b606061024f6040518060400160405280600e81526020017f436f6e7472616374206e616d653a000000000000000000000000000000000000815250600080546101cc90610bea565b80601f01602080910402602001604051908101604052809291908181526020018280546101f890610bea565b80156102455780601f1061021a57610100808354040283529160200191610245565b820191906000526020600020905b81548152906001019060200180831161022857829003601f168201915b50505050506106cb565b6000805461025c90610bea565b80601f016020809104026020016040519081016040528092919081815260200182805461028890610bea565b80156102d55780601f106102aa576101008083540402835291602001916102d5565b820191906000526020600020905b8154815290600101906020018083116102b857829003601f168201915b5050505050905090565b600260009054906101000a900473ffffffffffffffffffffffffffffffffffffffff1681565b6000600154826103159190610ac0565b90508047101561035a576040517f08c379a000000000000000000000000000000000000000000000000000000000815260040161035190610a64565b60405180910390fd5b3373ffffffffffffffffffffffffffffffffffffffff166108fc829081150290604051600060405180830381858888f193505050501580156103a0573d6000803e3d6000fd5b50600260009054906101000a900473ffffffffffffffffffffffffffffffffffffffff1673ffffffffffffffffffffffffffffffffffffffff166323b872dd3330856040518463ffffffff1660e01b81526004016104009392919061094b565b602060405180830381600087803b15801561041a57600080fd5b505af115801561042e573d6000803e3d6000fd5b505050506040513d601f19601f8201168201806040525081019061045291906107cf565b507fc7a6da2c72c2aa45768100a7d934b70561e3aab03005b5bb0ffc895d478ca4c633600260009054906101000a900473ffffffffffffffffffffffffffffffffffffffff16846001546040516104ac9493929190610982565b60405180910390a15050565b6000600154346104c89190610af1565b905080600260009054906101000a900473ffffffffffffffffffffffffffffffffffffffff1673ffffffffffffffffffffffffffffffffffffffff166370a08231306040518263ffffffff1660e01b81526004016105269190610930565b60206040518083038186803b15801561053e57600080fd5b505afa158015610552573d6000803e3d6000fd5b505050506040513d601f19601f820116820180604052508101906105769190610821565b10156105b7576040517f08c379a00000000000000000000000000000000000000000000000000000000081526004016105ae90610a84565b60405180910390fd5b600260009054906101000a900473ffffffffffffffffffffffffffffffffffffffff1673ffffffffffffffffffffffffffffffffffffffff1663a9059cbb33836040518363ffffffff1660e01b81526004016106149291906109c7565b602060405180830381600087803b15801561062e57600080fd5b505af1158015610642573d6000803e3d6000fd5b505050506040513d601f19601f8201168201806040525081019061066691906107cf565b507f85547704344084566981f5d831a8b32c266d8e0826cab5634f18dbf44d0be1dc33600260009054906101000a900473ffffffffffffffffffffffffffffffffffffffff16836001546040516106c09493929190610982565b60405180910390a150565b61076382826040516024016106e1929190610a2d565b6040516020818303038152906040527f4b5c4277000000000000000000000000000000000000000000000000000000007bffffffffffffffffffffffffffffffffffffffffffffffffffffffff19166020820180517bffffffffffffffffffffffffffffffffffffffffffffffffffffffff8381831617835250505050610767565b5050565b60008151905060006a636f6e736f6c652e6c6f679050602083016000808483855afa5050505050565b60008151905061079f81610cba565b92915050565b6000813590506107b481610cd1565b92915050565b6000815190506107c981610cd1565b92915050565b6000602082840312156107e157600080fd5b60006107ef84828501610790565b91505092915050565b60006020828403121561080a57600080fd5b6000610818848285016107a5565b91505092915050565b60006020828403121561083357600080fd5b6000610841848285016107ba565b91505092915050565b61085381610b4b565b82525050565b61086281610b93565b82525050565b600061087382610aa4565b61087d8185610aaf565b935061088d818560208601610bb7565b61089681610ca9565b840191505092915050565b60006108ae601083610aaf565b91507f4e6f7420656e6f756768206574686572000000000000000000000000000000006000830152602082019050919050565b60006108ee601d83610aaf565b91507f4e6f7420656e6f75676820746f6b656e7320696e2065786368616e67650000006000830152602082019050919050565b61092a81610b89565b82525050565b6000602082019050610945600083018461084a565b92915050565b6000606082019050610960600083018661084a565b61096d602083018561084a565b61097a6040830184610921565b949350505050565b6000608082019050610997600083018761084a565b6109a4602083018661084a565b6109b16040830185610921565b6109be6060830184610921565b95945050505050565b60006040820190506109dc600083018561084a565b6109e96020830184610921565b9392505050565b6000602082019050610a056000830184610859565b92915050565b60006020820190508181036000830152610a258184610868565b905092915050565b60006040820190508181036000830152610a478185610868565b90508181036020830152610a5b8184610868565b90509392505050565b60006020820190508181036000830152610a7d816108a1565b9050919050565b60006020820190508181036000830152610a9d816108e1565b9050919050565b600081519050919050565b600082825260208201905092915050565b6000610acb82610b89565b9150610ad683610b89565b925082610ae657610ae5610c4b565b5b828204905092915050565b6000610afc82610b89565b9150610b0783610b89565b9250817fffffffffffffffffffffffffffffffffffffffffffffffffffffffffffffffff0483118215151615610b4057610b3f610c1c565b5b828202905092915050565b6000610b5682610b69565b9050919050565b60008115159050919050565b600073ffffffffffffffffffffffffffffffffffffffff82169050919050565b6000819050919050565b6000610b9e82610ba5565b9050919050565b6000610bb082610b69565b9050919050565b60005b83811015610bd5578082015181840152602081019050610bba565b83811115610be4576000848401525b50505050565b60006002820490506001821680610c0257607f821691505b60208210811415610c1657610c15610c7a565b5b50919050565b7f4e487b7100000000000000000000000000000000000000000000000000000000600052601160045260246000fd5b7f4e487b7100000000000000000000000000000000000000000000000000000000600052601260045260246000fd5b7f4e487b7100000000000000000000000000000000000000000000000000000000600052602260045260246000fd5b6000601f19601f8301169050919050565b610cc381610b5d565b8114610cce57600080fd5b50565b610cda81610b89565b8114610ce557600080fd5b5056fea2646970667358221220720ff4fad8943fd502853f49e19569823be31b04638a7cf01fd31ecbd23fb88f64736f6c63430008000033",
  "linkReferences": {},
  "deployedLinkReferences": {}
}